{
  "contractName": "WinToken",
  "abi": [
    {
      "constant": true,
      "inputs": [],
      "name": "name",
      "outputs": [
        {
          "name": "",
          "type": "string"
        }
      ],
      "payable": false,
      "stateMutability": "view",
      "type": "function"
    },
    {
      "constant": false,
      "inputs": [
        {
          "name": "_spender",
          "type": "address"
        },
        {
          "name": "_value",
          "type": "uint256"
        }
      ],
      "name": "approve",
      "outputs": [
        {
          "name": "",
          "type": "bool"
        }
      ],
      "payable": false,
      "stateMutability": "nonpayable",
      "type": "function"
    },
    {
      "constant": true,
      "inputs": [],
      "name": "totalSupply",
      "outputs": [
        {
          "name": "",
          "type": "uint256"
        }
      ],
      "payable": false,
      "stateMutability": "view",
      "type": "function"
    },
    {
      "constant": false,
      "inputs": [
        {
          "name": "_from",
          "type": "address"
        },
        {
          "name": "_to",
          "type": "address"
        },
        {
          "name": "_value",
          "type": "uint256"
        }
      ],
      "name": "transferFrom",
      "outputs": [
        {
          "name": "",
          "type": "bool"
        }
      ],
      "payable": false,
      "stateMutability": "nonpayable",
      "type": "function"
    },
    {
      "constant": true,
      "inputs": [],
      "name": "decimals",
      "outputs": [
        {
          "name": "",
          "type": "uint8"
        }
      ],
      "payable": false,
      "stateMutability": "view",
      "type": "function"
    },
    {
      "constant": true,
      "inputs": [],
      "name": "ethBalance",
      "outputs": [
        {
          "name": "",
          "type": "uint256"
        }
      ],
      "payable": false,
      "stateMutability": "view",
      "type": "function"
    },
    {
      "constant": false,
      "inputs": [
        {
          "name": "_spender",
          "type": "address"
        },
        {
          "name": "_subtractedValue",
          "type": "uint256"
        }
      ],
      "name": "decreaseApproval",
      "outputs": [
        {
          "name": "",
          "type": "bool"
        }
      ],
      "payable": false,
      "stateMutability": "nonpayable",
      "type": "function"
    },
    {
      "constant": true,
      "inputs": [],
      "name": "M",
      "outputs": [
        {
          "name": "",
          "type": "uint256"
        }
      ],
      "payable": false,
      "stateMutability": "view",
      "type": "function"
    },
    {
      "constant": true,
      "inputs": [],
      "name": "participants",
      "outputs": [
        {
          "name": "",
          "type": "uint256"
        }
      ],
      "payable": false,
      "stateMutability": "view",
      "type": "function"
    },
    {
      "constant": true,
      "inputs": [],
      "name": "coinsPerETh",
      "outputs": [
        {
          "name": "",
          "type": "uint256"
        }
      ],
      "payable": false,
      "stateMutability": "view",
      "type": "function"
    },
    {
      "constant": true,
      "inputs": [
        {
          "name": "_owner",
          "type": "address"
        }
      ],
      "name": "balanceOf",
      "outputs": [
        {
          "name": "balance",
          "type": "uint256"
        }
      ],
      "payable": false,
      "stateMutability": "view",
      "type": "function"
    },
    {
      "constant": true,
      "inputs": [],
      "name": "symbol",
      "outputs": [
        {
          "name": "",
          "type": "string"
        }
      ],
      "payable": false,
      "stateMutability": "view",
      "type": "function"
    },
    {
      "constant": false,
      "inputs": [
        {
          "name": "_to",
          "type": "address"
        },
        {
          "name": "_value",
          "type": "uint256"
        }
      ],
      "name": "transfer",
      "outputs": [
        {
          "name": "",
          "type": "bool"
        }
      ],
      "payable": false,
      "stateMutability": "nonpayable",
      "type": "function"
    },
    {
      "constant": true,
      "inputs": [],
      "name": "N",
      "outputs": [
        {
          "name": "",
          "type": "uint8"
        }
      ],
      "payable": false,
      "stateMutability": "view",
      "type": "function"
    },
    {
      "constant": false,
      "inputs": [
        {
          "name": "_spender",
          "type": "address"
        },
        {
          "name": "_addedValue",
          "type": "uint256"
        }
      ],
      "name": "increaseApproval",
      "outputs": [
        {
          "name": "",
          "type": "bool"
        }
      ],
      "payable": false,
      "stateMutability": "nonpayable",
      "type": "function"
    },
    {
      "constant": true,
      "inputs": [
        {
          "name": "_owner",
          "type": "address"
        },
        {
          "name": "_spender",
          "type": "address"
        }
      ],
      "name": "allowance",
      "outputs": [
        {
          "name": "",
          "type": "uint256"
        }
      ],
      "payable": false,
      "stateMutability": "view",
      "type": "function"
    },
    {
      "constant": true,
      "inputs": [],
      "name": "minETH",
      "outputs": [
        {
          "name": "",
          "type": "uint256"
        }
      ],
      "payable": false,
      "stateMutability": "view",
      "type": "function"
    },
    {
      "constant": true,
      "inputs": [],
      "name": "test",
      "outputs": [
        {
          "name": "",
          "type": "uint256"
        }
      ],
      "payable": false,
      "stateMutability": "view",
      "type": "function"
    },
    {
      "inputs": [],
      "payable": false,
      "stateMutability": "nonpayable",
      "type": "constructor"
    },
    {
      "payable": true,
      "stateMutability": "payable",
      "type": "fallback"
    },
    {
      "anonymous": false,
      "inputs": [
        {
          "indexed": true,
          "name": "owner",
          "type": "address"
        },
        {
          "indexed": true,
          "name": "spender",
          "type": "address"
        },
        {
          "indexed": false,
          "name": "value",
          "type": "uint256"
        }
      ],
      "name": "Approval",
      "type": "event"
    },
    {
      "anonymous": false,
      "inputs": [
        {
          "indexed": true,
          "name": "from",
          "type": "address"
        },
        {
          "indexed": true,
          "name": "to",
          "type": "address"
        },
        {
          "indexed": false,
          "name": "value",
          "type": "uint256"
        }
      ],
      "name": "Transfer",
      "type": "event"
    },
    {
      "constant": false,
      "inputs": [
        {
          "name": "_address",
          "type": "address"
        }
      ],
      "name": "updateAdmin",
      "outputs": [],
      "payable": false,
      "stateMutability": "nonpayable",
      "type": "function"
    },
    {
      "constant": false,
      "inputs": [
        {
          "name": "_n",
          "type": "uint8"
        }
      ],
      "name": "updateN",
      "outputs": [],
      "payable": false,
      "stateMutability": "nonpayable",
      "type": "function"
    },
    {
      "constant": false,
      "inputs": [
        {
          "name": "_m",
          "type": "uint256"
        }
      ],
      "name": "updateM",
      "outputs": [],
      "payable": false,
      "stateMutability": "nonpayable",
      "type": "function"
    },
    {
      "constant": false,
      "inputs": [
        {
          "name": "_minETH",
          "type": "uint256"
        }
      ],
      "name": "updateMinETH",
      "outputs": [],
      "payable": false,
      "stateMutability": "nonpayable",
      "type": "function"
    },
    {
      "constant": false,
      "inputs": [
        {
          "name": "_name",
          "type": "string"
        },
        {
          "name": "_symbol",
          "type": "string"
        }
      ],
      "name": "updateNameSymbol",
      "outputs": [],
      "payable": false,
      "stateMutability": "nonpayable",
      "type": "function"
    },
    {
      "constant": false,
      "inputs": [
        {
          "name": "_coinsPerETH",
          "type": "uint256"
        }
      ],
      "name": "updateCoinsPerETh",
      "outputs": [],
      "payable": false,
      "stateMutability": "nonpayable",
      "type": "function"
    },
    {
      "constant": false,
      "inputs": [],
      "name": "selectWinner",
      "outputs": [],
      "payable": false,
      "stateMutability": "nonpayable",
      "type": "function"
    }
  ],
  "bytecode": "0x60c0604052600660808190527f57696e6e6572000000000000000000000000000000000000000000000000000060a090815262000040916003919062000102565b506040805180820190915260038082527f57494e00000000000000000000000000000000000000000000000000000000006020909201918252620000879160049162000102565b5060058054601260ff1991821617909155600060068190556706f05b59d3b20000600755606460085560098054600a931683179055674563918244f40000909155600b805433600160a060020a0319909116179055600c819055600d819055600e819055601055348015620000fb57600080fd5b50620001a7565b828054600181600116156101000203166002900490600052602060002090601f016020900481019282601f106200014557805160ff191683800117855562000175565b8280016001018555821562000175579182015b828111156200017557825182559160200191906001019062000158565b506200018392915062000187565b5090565b620001a491905b808211156200018357600081556001016200018e565b90565b61102880620001b76000396000f3006080604052600436106101485763ffffffff7c010000000000000000000000000000000000000000000000000000000060003504166306fdde0381146102ce578063095ea7b31461035857806318160ddd146103905780631cc4c1e3146103b757806323b872dd146103d1578063313ce567146103fb57806333a99e04146104265780634cc45b1c1461043b5780634e6630b0146104535780636618846314610468578063693f917e1461048c5780636c4470fb146104a157806370476244146104b657806370a08231146104cb5780637bf63fdb146104ec5780638d4abb5f1461050757806395d89b411461051f578063a9059cbb14610534578063bf85223714610558578063c9e525df146105ef578063d73dd62314610604578063dd62ed3e14610628578063df67d82d1461064f578063e2f273bd14610664578063f8a8fd6d14610685575b600080600060075434101515156101c057604080517f08c379a000000000000000000000000000000000000000000000000000000000815260206004820152601460248201527f4d696e696d756d20616d6f756e74206572726f72000000000000000000000000604482015290519081900360640190fd5b6008546101d490349063ffffffff61069a16565b6006805482019055600d80546001019055600c80543401905560408051828152905191945033916000917fddf252ad1be2c89b69c2b068fc378daa952ba7f163c4a11628f55a4df523b3ef919081900360200190a333600090815260208190526040902080548401905560075461025290349063ffffffff6106d016565b9150600090505b818110156102a057600e80546000908152600f60205260409020805473ffffffffffffffffffffffffffffffffffffffff1916331790558054600190810190915501610259565b600a54600c541015806102bc5750600954600d5460ff90911611155b156102c9576102c96106e7565b505050005b3480156102da57600080fd5b506102e36107ec565b6040805160208082528351818301528351919283929083019185019080838360005b8381101561031d578181015183820152602001610305565b50505050905090810190601f16801561034a5780820380516001836020036101000a031916815260200191505b509250505060405180910390f35b34801561036457600080fd5b5061037c600160a060020a036004351660243561087a565b604080519115158252519081900360200190f35b34801561039c57600080fd5b506103a56108e0565b60408051918252519081900360200190f35b3480156103c357600080fd5b506103cf6004356108e6565b005b3480156103dd57600080fd5b5061037c600160a060020a0360043581169060243516604435610902565b34801561040757600080fd5b50610410610a79565b6040805160ff9092168252519081900360200190f35b34801561043257600080fd5b506103cf610a82565b34801561044757600080fd5b506103cf600435610aa3565b34801561045f57600080fd5b506103a5610abf565b34801561047457600080fd5b5061037c600160a060020a0360043516602435610ac5565b34801561049857600080fd5b506103a5610bb5565b3480156104ad57600080fd5b506103a5610bbb565b3480156104c257600080fd5b506103a5610bc1565b3480156104d757600080fd5b506103a5600160a060020a0360043516610bc7565b3480156104f857600080fd5b506103cf60ff60043516610be2565b34801561051357600080fd5b506103cf600435610c0f565b34801561052b57600080fd5b506102e3610c2b565b34801561054057600080fd5b5061037c600160a060020a0360043516602435610c86565b34801561056457600080fd5b506040805160206004803580820135601f81018490048402850184019095528484526103cf94369492936024939284019190819084018382808284375050604080516020601f89358b018035918201839004830284018301909452808352979a999881019791965091820194509250829150840183828082843750949750610d679650505050505050565b3480156105fb57600080fd5b50610410610daa565b34801561061057600080fd5b5061037c600160a060020a0360043516602435610db3565b34801561063457600080fd5b506103a5600160a060020a0360043581169060243516610e4c565b34801561065b57600080fd5b506103a5610e77565b34801561067057600080fd5b506103cf600160a060020a0360043516610e7d565b34801561069157600080fd5b506103a5610f3a565b6000808315156106ad57600091506106c9565b508282028284828115156106bd57fe5b04146106c557fe5b8091505b5092915050565b60008082848115156106de57fe5b04949350505050565b6000806000600c54101515156106fc57600080fd5b600e5460001943014081151561070e57fe5b066000818152600f6020526040902054600c54919350600160a060020a0316915081906108fc906107599060649061074d90605063ffffffff61069a16565b9063ffffffff6106d016565b6040518115909202916000818181858888f19350505050158015610781573d6000803e3d6000fd5b50600b54600c54600160a060020a03909116906108fc906107b09060649061074d90601463ffffffff61069a16565b6040518115909202916000818181858888f193505050501580156107d8573d6000803e3d6000fd5b50506000600c819055600e819055600d5550565b6003805460408051602060026001851615610100026000190190941693909304601f810184900484028201840190925281815292918301828280156108725780601f1061084757610100808354040283529160200191610872565b820191906000526020600020905b81548152906001019060200180831161085557829003601f168201915b505050505081565b336000818152600260209081526040808320600160a060020a038716808552908352818420869055815186815291519394909390927f8c5be1e5ebec7d5bd14f71427d1e84f3dd0314c0f7b2291e5b200ac8c7c3b925928290030190a350600192915050565b60065481565b600b54600160a060020a031633146108fd57600080fd5b600a55565b6000600160a060020a038316151561091957600080fd5b600160a060020a03841660009081526020819052604090205482111561093e57600080fd5b600160a060020a038416600090815260026020908152604080832033845290915290205482111561096e57600080fd5b600160a060020a038416600090815260208190526040902054610997908363ffffffff610f4016565b600160a060020a0380861660009081526020819052604080822093909355908516815220546109cc908363ffffffff610f5216565b600160a060020a03808516600090815260208181526040808320949094559187168152600282528281203382529091522054610a0e908363ffffffff610f4016565b600160a060020a03808616600081815260026020908152604080832033845282529182902094909455805186815290519287169391927fddf252ad1be2c89b69c2b068fc378daa952ba7f163c4a11628f55a4df523b3ef929181900390910190a35060019392505050565b60055460ff1681565b600b54600160a060020a03163314610a9957600080fd5b610aa16106e7565b565b600b54600160a060020a03163314610aba57600080fd5b600755565b600c5481565b336000908152600260209081526040808320600160a060020a038616845290915281205480831115610b1a57336000908152600260209081526040808320600160a060020a0388168452909152812055610b4f565b610b2a818463ffffffff610f4016565b336000908152600260209081526040808320600160a060020a03891684529091529020555b336000818152600260209081526040808320600160a060020a0389168085529083529281902054815190815290519293927f8c5be1e5ebec7d5bd14f71427d1e84f3dd0314c0f7b2291e5b200ac8c7c3b925929181900390910190a35060019392505050565b600a5481565b600d5481565b60085481565b600160a060020a031660009081526020819052604090205490565b600b54600160a060020a03163314610bf957600080fd5b6009805460ff191660ff92909216919091179055565b600b54600160a060020a03163314610c2657600080fd5b600855565b6004805460408051602060026001851615610100026000190190941693909304601f810184900484028201840190925281815292918301828280156108725780601f1061084757610100808354040283529160200191610872565b6000600160a060020a0383161515610c9d57600080fd5b33600090815260208190526040902054821115610cb957600080fd5b33600090815260208190526040902054610cd9908363ffffffff610f4016565b3360009081526020819052604080822092909255600160a060020a03851681522054610d0b908363ffffffff610f5216565b600160a060020a038416600081815260208181526040918290209390935580518581529051919233927fddf252ad1be2c89b69c2b068fc378daa952ba7f163c4a11628f55a4df523b3ef9281900390910190a350600192915050565b600b54600160a060020a03163314610d7e57600080fd5b8151610d91906003906020850190610f61565b508051610da5906004906020840190610f61565b505050565b60095460ff1681565b336000908152600260209081526040808320600160a060020a0386168452909152812054610de7908363ffffffff610f5216565b336000818152600260209081526040808320600160a060020a0389168085529083529281902085905580519485525191937f8c5be1e5ebec7d5bd14f71427d1e84f3dd0314c0f7b2291e5b200ac8c7c3b925929081900390910190a350600192915050565b600160a060020a03918216600090815260026020908152604080832093909416825291909152205490565b60075481565b600b54600160a060020a03163314610e9457600080fd5b600160a060020a0381161515610f0b57604080517f08c379a000000000000000000000000000000000000000000000000000000000815260206004820152600f60248201527f496e76616c696420616464726573730000000000000000000000000000000000604482015290519081900360640190fd5b600b805473ffffffffffffffffffffffffffffffffffffffff1916600160a060020a0392909216919091179055565b60105481565b600082821115610f4c57fe5b50900390565b6000828201838110156106c557fe5b828054600181600116156101000203166002900490600052602060002090601f016020900481019282601f10610fa257805160ff1916838001178555610fcf565b82800160010185558215610fcf579182015b82811115610fcf578251825591602001919060010190610fb4565b50610fdb929150610fdf565b5090565b610ff991905b80821115610fdb5760008155600101610fe5565b905600a165627a7a72305820b4d6252298aa3b726b28f1b1cde50bdfcade646a5ed525c259606cd6e1b2c23b0029",
  "source": "pragma solidity ^0.4.25;\n\nimport 'zeppelin-solidity/contracts/token/ERC20/StandardToken.sol';\n\ncontract WinToken is StandardToken {\n    using SafeMath for uint256;\n\n    string public name = \"Winner\";\n    string public symbol = \"WIN\";\n    uint8 public decimals = 18;\n\n    uint256 public totalSupply = 0;\n\n    uint256 public minETH = 0.5 ether;\n    uint256 public coinsPerETh = 100;\n\n    // number of persons\n    uint8 public N = 10;\n\n    // ETH amount\n    uint256 public M = 5 ether;\n\n    /**\n     * Admin\n     */\n    address private adminWallet = msg.sender;\n\n    uint256 public ethBalance = 0;\n    uint256 public participants = 0;\n\n    uint256 private maxChance = 0;\n    mapping(uint256 => address) private chances;\n\n    uint256 public test = 0;\n\n    /**\n     * @dev Constructor\n     */\n    constructor() public{\n\n    }\n\n    modifier isAdmin(){\n        require(msg.sender == adminWallet);\n        _;\n    }\n\n    modifier checkMin(){\n        require(msg.value >= minETH, \"Minimum amount error\");\n        _;\n    }\n\n    function() checkMin public payable{\n        uint256 tokenAmount = msg.value.mul(coinsPerETh);\n        totalSupply += tokenAmount;\n\n        participants += 1;\n        ethBalance += msg.value;\n\n        Transfer(address(0), msg.sender, tokenAmount);\n        balances[msg.sender] += tokenAmount;\n\n        uint256 chanceCount = msg.value.div(minETH);\n        \n        for(uint256 i=0; i < chanceCount; i++){\n            chances[maxChance] = msg.sender;\n            maxChance += 1;\n        }\n\n        if(ethBalance >= M || participants >= N){\n            _selectWinner();\n        }\n    }\n\n    function updateAdmin(address _address) isAdmin public{\n        require(_address != address(0), \"Invalid address\");\n        adminWallet = _address;\n    }\n\n    function updateN(uint8 _n) isAdmin public{\n        N = _n;\n    }\n\n    function updateM(uint256 _m) isAdmin public{\n        M = _m;\n    }\n\n    function updateMinETH(uint256 _minETH) isAdmin public{\n        minETH = _minETH;\n    }\n\n    function updateNameSymbol(string _name, string _symbol) isAdmin public{\n        name = _name;\n        symbol = _symbol;\n    }\n\n    function updateCoinsPerETh(uint256 _coinsPerETH) isAdmin public{\n        coinsPerETh = _coinsPerETH;\n    }\n\n    function _selectWinner() private{\n        require(ethBalance >= 0);\n\n        uint256 indx = uint256(block.blockhash(block.number-1)) % maxChance;\n        address winner = chances[indx];\n        winner.transfer(ethBalance.mul(80).div(100));\n        adminWallet.transfer(ethBalance.mul(20).div(100));\n\n        ethBalance = 0;\n        maxChance = 0;\n        participants = 0;\n\n    }\n\n    function selectWinner() isAdmin public{\n        _selectWinner();\n    }\n}\n",
  "sourcePath": "/home/projects/projects/WinnerToken/contract/contracts/WinToken.sol",
  "compiler": {
    "name": "solc",
    "version": "0.4.25+commit.59dbf8f1.Emscripten.clang"
  },
  "schemaVersion": "3.2.3",
  "updatedAt": "2020-08-25T18:16:36.774Z",
  "devdoc": {
    "methods": {
      "allowance(address,address)": {
        "details": "Function to check the amount of tokens that an owner allowed to a spender.",
        "params": {
          "_owner": "address The address which owns the funds.",
          "_spender": "address The address which will spend the funds."
        },
        "return": "A uint256 specifying the amount of tokens still available for the spender."
      },
      "approve(address,uint256)": {
        "details": "Approve the passed address to spend the specified amount of tokens on behalf of msg.sender.   * Beware that changing an allowance with this method brings the risk that someone may use both the old and the new allowance by unfortunate transaction ordering. One possible solution to mitigate this race condition is to first reduce the spender's allowance to 0 and set the desired value afterwards: https://github.com/ethereum/EIPs/issues/20#issuecomment-263524729",
        "params": {
          "_spender": "The address which will spend the funds.",
          "_value": "The amount of tokens to be spent."
        }
      },
      "balanceOf(address)": {
        "details": "Gets the balance of the specified address.",
        "params": {
          "_owner": "The address to query the the balance of."
        },
        "return": "An uint256 representing the amount owned by the passed address."
      },
      "decreaseApproval(address,uint256)": {
        "details": "Decrease the amount of tokens that an owner allowed to a spender.   * approve should be called when allowed[_spender] == 0. To decrement allowed value is better to use this function to avoid 2 calls (and wait until the first transaction is mined) From MonolithDAO Token.sol",
        "params": {
          "_spender": "The address which will spend the funds.",
          "_subtractedValue": "The amount of tokens to decrease the allowance by."
        }
      },
      "increaseApproval(address,uint256)": {
        "details": "Increase the amount of tokens that an owner allowed to a spender.   * approve should be called when allowed[_spender] == 0. To increment allowed value is better to use this function to avoid 2 calls (and wait until the first transaction is mined) From MonolithDAO Token.sol",
        "params": {
          "_addedValue": "The amount of tokens to increase the allowance by.",
          "_spender": "The address which will spend the funds."
        }
      },
      "transfer(address,uint256)": {
        "details": "transfer token for a specified address",
        "params": {
          "_to": "The address to transfer to.",
          "_value": "The amount to be transferred."
        }
      },
      "transferFrom(address,address,uint256)": {
        "details": "Transfer tokens from one address to another",
        "params": {
          "_from": "address The address which you want to send tokens from",
          "_to": "address The address which you want to transfer to",
          "_value": "uint256 the amount of tokens to be transferred"
        }
      }
    }
  },
  "userdoc": {
    "methods": {}
  }
}